:100000000C94460018950000189500001895000003
:10001000189500001895000018950000189500002C
:10002000189500001895000018950000189500001C
:100030001895000018950000189500000C94CB014D
:1000400018950000189500000C94380118950000D0
:100050000C94A00018950000189500001895000059
:1000600018950000189500001895000018950000DC
:1000700018950000189500001895000018950000CC
:100080001895000018950000189500008FEF8DBF9F
:10009000C0E8E8E94E2E80E48EBFD0E4FFE35F2E97
:1000A000A89584B7082E882784BF88E19927809374
:1000B000600090936000EEEFFFE3A0E0B1E08827DE
:1000C0008D933197E9F78FE28093C40080E08093AD
:1000D000C50088E18093C10066243A9A3B9A0A9A47
:1000E000129A209A219A229A239A249A549A559ADB
:1000F0003D98459A0F98179A0E9A85E085BD80E045
:1001000084BD70916E00716070936E0085E085BD56
:100110007091C10070687093C1000E943C0E80E035
:100120008093800084E08093810070916F00716003
:1001300070936F0084E08093810078940C94EF08B2
:100140000F921F922F923F924F925F927F92AF92A7
:10015000BF920F931F932F933F934F935F936F9390
:100160007F938F939F93AF93BF93CF93DF93EF933F
:10017000FF939FB79F939BB79F9399279BBFACE03B
:10018000B3E08091C6008C9384E2482F00910C0369
:10019000041711F00C94D7007091F2017460709301
:1001A000F201A3E9B2E088278C930C9419010D3079
:1001B00011F00C940101A2EFB1E08C9182FB16F0DA
:1001C0000C94FF007091F2017B7F7093F20180E04C
:1001D000A3E9B2E00E942A0A8D9388278C93E3E971
:1001E000F2E0ADE0B3E00E94D40D7091F2017260D4
:1001F0007093F20170916E00716070936E000C94B8
:1002000019010F3118F011F00C9408010C94190128
:10021000A2EFB1E08C9182FB16F00C941901ACE0D6
:10022000B3E08C91A3E9B2E00E942A0A8D9388275B
:100230008C939F919BBF9F919FBFFF91EF91DF9107
:10024000CF91BF91AF919F918F917F916F915F916E
:100250004F913F912F911F910F91BF90AF907F9041
:100260005F904F903F902F901F900F90189508959A
:100270000F921F922F923F924F925F927F92AF9276
:10028000BF920F931F932F933F934F935F936F935F
:100290007F938F939F93AF93BF93CF93DF93EF930E
:1002A000FF939FB79F939BB79F9399279BBF78EB33
:1002B00076BDABEEB1E08C918F5F8C93ABEEB1E08D
:1002C0000C9148E00E94E90D8C930091EB01003005
:1002D00011F00C94AD01ACEEB1E00C9140E20E9443
:1002E000E90D8C93E4E4F1E10E940A0DA1EFB1E085
:1002F0008C919927ADEEB1E00E94CC0C8091EC017D
:10030000ADEEB1E00E94F90C0E94EF0C0C900822B7
:10031000689409F4E894A2EFB1E08C9187F98C938A
:10032000A2EFB1E08C9190E889278C93A2EFB1E025
:100330008C9187FBA8E2B0E08C9182F98C93A2EFBC
:10034000B1E08C9187FBA8E2B0E08C9183F98C93AB
:10035000ACEEB1E08C918F5F8C939F919BBF9F918E
:100360009FBFFF91EF91DF91CF91BF91AF919F918F
:100370008F917F916F915F914F913F912F911F913D
:100380000F91BF90AF907F905F904F903F902F90D4
:100390001F900F9018950F921F922F923F924F929D
:1003A0005F927F92AF92BF920F931F932F933F93D1
:1003B0004F935F936F937F938F939F93AF93BF936D
:1003C000CF93DF93EF93FF939FB79F939BB79F9339
:1003D00099279BBF8EEE95E89093850080938400CB
:1003E0007091F20170647093F2010E94D20AE6E00B
:1003F000F1E0FA93EA93EFE0F1E00E945B0CAAE1EE
:10040000B1E00D931D932D933D93AAE1B1E00E94BD
:10041000D609EAE1F1E0AFE0B1E00E944B0C0E94A6
:10042000E50AEAE1F1E0A6E0B1E00E94530C0E9487
:10043000DD0A9F919BBF9F919FBFFF91EF91DF913D
:10044000CF91BF91AF919F918F917F916F915F916C
:100450004F913F912F911F910F91BF90AF907F903F
:100460005F904F903F902F901F900F901895089598
:10047000089508954298E6E2FDE10E940A0D0E9467
:10048000390A0E94400AA0E8BFE3E8E4FDE10E94C7
:100490000A0D0E94A60C0E94310A0E94400AA0E8A0
:1004A000BFE3ECE5FDE10E940A0D0E94A60C0E944C
:1004B000310A0E94400AA0E8BFE3E2E6FDE10E94A3
:1004C0000A0D0E94A60C0E94310A0E94400A81E097
:1004D0008093F1010895EEE6FDE10E940A0D0E946D
:1004E000390AADE0B3E00E94330A0E94400A81E07D
:1004F000EDE0F3E006E00A93A6EBB1E00E94D90D2F
:10050000EDE0F3E09CE204E136E0A5E1B2E00E9418
:10051000150EA4E1B2E02C9300911402003018F003
:1005200011F00C9495020C94C70281E0809319019C
:100530004091140200911901041718F011F00C9465
:10054000C702E9E1F1E0A0E8BFE30E944D0D0E947F
:10055000310AE0E7FDE10E940A0D0E94390AA9E193
:10056000B1E00D91112745E150E00E94790CA0E027
:10057000B2E0A00FB11F0E94330A0E94400AA9E115
:10058000B1E08C918F5F8C9310F40C949802A5E1EC
:10059000B2E00E94F90D082F063011F00C94BC0552
:1005A000E5E1F2E0A4E2B1E00E94D40DE4E2F1E082
:1005B000A4E2B1E00E94E30C8FEF8093A401A4E2D7
:1005C000B1E0E2E7FDE10E940A0D0E94FF0D11F08B
:1005D0000C942B0380E08093A401ABE2B1E0EAE746
:1005E000FDE10E940A0D0E94A60CA6EBB1E0E8E432
:1005F000FDE10E940A0D0E94A60CE6EBF1E0ABE2E1
:10060000B1E00E942A0A0E94D40DABE2B1E00E9440
:100610002A0AEEE8FDE10E940A0D0E94A60CA6EB54
:10062000B1E0E2E6FDE10E940A0D0E94A60CE6EBB5
:10063000F1E0ABE2B1E00E942A0A0E94D40DABE2E5
:10064000B1E00E942A0AECE9FDE10E940A0D0E9435
:10065000A60C0C94BA05EEE9FDE10E940A0D0E9479
:10066000FF0D11F00C946A0300911402023011F096
:100670000C946503AAE2B2E00E94920DA9E1B1E0F8
:100680000C9300911901013110F00C94600380E08B
:100690008093A401ABE2B1E0E6EAFDE10E940A0D1D
:1006A0000E94A60CE9E1F1E0ABE2B1E00E942A0A67
:1006B0000E944D0D809119018093F1010C94630308
:1006C00085E08093A4010C94680384E08093A401E6
:1006D0000C94BA05EEEBFDE10E940A0D0E94FF0D9D
:1006E00011F00C94AA0380E08093A4010E94D20A26
:1006F000EFE0F1E0A6EBB1E00E94D40DABE2B1E097
:10070000E6ECFDE10E940A0D0E94A60CE6EBF1E08A
:10071000ABE2B1E00E942A0A0E94D40DABE2B1E044
:100720000E942A0AE4EDFDE10E940A0D0E94A60C37
:100730000E94D20AE6E0F1E0A6EBB1E00E94D40DFF
:10074000E6EBF1E0ABE2B1E00E942A0A0E94D40D90
:100750000C94BA05E4EEFDE10E940A0D0E94FF0D23
:1007600011F00C94A20400911402023011F00C94C8
:100770009D04AAE2B2E00E94F90D082F0A3011F0A0
:100780000C94980480E08093A40187E0EAE2F2E010
:1007900002E00A93A6EBB1E00E94D90DA6EBB1E00E
:1007A0000E942A0AE0E7FDE10E940A0D0E94A60CC1
:1007B00089E0EAE2F2E002E00A93A6EBB1E00E94EF
:1007C0002A0A0E94D90DA6EBB1E00E942A0AE0E7AE
:1007D000FDE10E940A0D0E94A60C8BE0EAE2F2E025
:1007E00002E00A93A6EBB1E00E942A0A0E94D90D0A
:1007F000A6EBB1E00E94330A0E94400AE6EBF1E06A
:10080000AFE0B1E00E94D40D0E94E50AECEEFDE1FC
:100810000E940A0D0E94390A0E94D20AAFE0B1E09C
:100820000E94330A0E94400A81E0EAE2F2E002E01C
:100830000A93A6EBB1E00E94D90DA6EBB1E00E94AD
:100840002A0AE0EFFDE10E940A0D0E94A60C83E057
:10085000EAE2F2E002E00A93A6EBB1E00E942A0A83
:100860000E94D90DA6EBB1E00E942A0AE0EFFDE15B
:100870000E940A0D0E94A60C85E0EAE2F2E002E086
:100880000A93A6EBB1E00E942A0A0E94D90DA6EBBA
:10089000B1E00E94330A0E94400AE6EBF1E0A6E0D4
:1008A000B1E00E94D40D0E94DD0AE2EFFDE10E945A
:1008B0000A0D0E94390A0E94D20AA6E0B1E00E9405
:1008C000330A0E94400AABE2B1E0E6EFFDE10E948C
:1008D0000A0D0E94A60C0E94D20AE6E0F1E0ABE20B
:1008E000B1E00E942A0A0E94D40DABE2B1E00E945E
:1008F0002A0AE0E2FEE10E940A0D0E94A60C0E9474
:10090000D20AEFE0F1E0ABE2B1E00E942A0A0E94D5
:10091000D40DE3E0F1E00E94350BAEEFB1E08C9333
:100920000E9468060E94B6060E94DD050C949B0496
:1009300086E08093A4010C94A00484E08093A40139
:100940000C94BA05E4E2FEE10E940A0D0E94FF0D3C
:1009500011F00C94BA0480E08093A401ABE2B1E002
:10096000ECE2FEE10E940A0D0E94A60C0E94DD0549
:100970000C94BA05E4E3FEE10E940A0D0E94FF0D0B
:1009800011F00C942A0500911402033011F00C941C
:100990002505AAE2B2E00E94920DAFE0B2E00C930E
:1009A00000910F02023010F00C942005AFE3B2E08A
:1009B0000E94920DA0E1B2E00D931C937091F201A0
:1009C00070627093F20180E08093A401ABE2B1E029
:1009D000ECE3FEE10E940A0D0E94A60C00910F02BA
:1009E000003011F00C940105ABE2B1E00E942A0A3C
:1009F000E0E5FEE10E940A0D0E94A60C5C9A0C94B0
:100A00000C05ABE2B1E00E942A0AEAE5FEE10E9491
:100A10000A0D0E94A60C5C98E0E1F2E0ABE2B1E0C6
:100A20000E942A0A0E943D0DABE2B1E00E942A0A10
:100A3000E6E6FEE10E940A0D0E94A60C0C94230536
:100A400085E08093A4010C94280584E08093A401A0
:100A50000C94BA05EEE6FEE10E940A0D0E94FF0D1D
:100A600011F00C947B0500911402023011F00C94EB
:100A70007905AAE2B2E00E94920DA9E1B1E00C93DF
:100A800000911901083010F00C94760580E08093F5
:100A9000A401ABE2B1E0E6E7FEE10E940A0D0E948C
:100AA000A60CE9E1F1E0ABE2B1E00E942A0A0E9463
:100AB0004D0DA9E1B1E08C9180FBA5E2B0E08C91F5
:100AC00081F98C93A9E1B1E08C9181FBA5E2B0E0C2
:100AD0008C9182F98C93A9E1B1E08C9182FBA5E223
:100AE000B0E08C9183F98C930C94790584E0809329
:100AF000A4010C94BA05EEE8FEE10E940A0D0E94E2
:100B0000FF0D11F00C94B70580E08093190180E08F
:100B10008093A401A5E2B0E08C9181FBA9E1B1E052
:100B20008C9180F98C93A5E2B0E08C9182FBA9E1D5
:100B3000B1E08C9181F98C93A5E2B0E08C9183FBBC
:100B4000A9E1B1E08C9182F98C93ABE2B1E0E6E9E6
:100B5000FEE10E940A0D0E94A60CE9E1F1E0ABE281
:100B6000B1E00E942A0A0E944D0D0C94BA0581E062
:100B70008093A4010C94BF0582E08093A4010091AE
:100B8000A401003018F011F00C94C8050C94D6059F
:100B9000EAE6F0E10E940A0DA4EAB1E08C919927FF
:100BA0000E94DB0CABE2B1E00E94A60CABE2B1E02C
:100BB0000E94330A0E94400A08950E94410E62FA80
:100BC00016F40C945F0610ED0E94590E10E00E947E
:100BD000590E0E94410E62FA16F40C94550611ED5E
:100BE0000E94590E0E94780EA0E0B1E01C930E9472
:100BF000780EA1E0B1E01C930E94780EA2E0B1E073
:100C00001C930E94780EAEEFB1E01C930E94780E08
:100C1000A3E0B1E01C930E94780EA4E0B1E01C9325
:100C20000E94760EA5E0B1E01C930E94500E62FA7D
:100C300016F00C9429068FE0D2018C9381E00E947B
:100C4000710C0E940007229681E00E946D0C0C94AA
:100C50005306909100010E94B30AA0E0B1E08C938A
:100C6000909101010E94B30AA1E0B1E08C939091B0
:100C700002010E94B30AA2E0B1E08C9390910301BB
:100C80000E94B30AA3E0B1E08C93909104010E940A
:100C9000B30AA4E0B1E08C93909105010E94B30ADD
:100CA000A5E0B1E08C930C945D06E2EAFEE10E94BF
:100CB0000A0D0E94390A0E94400A0C946706EAEC69
:100CC000FEE10E940A0D0E94390A0E94400A08951E
:100CD0000E94410E62FA16F40C94AD068091030155
:100CE0000E94AC0AA3E0B1E08C93809104010E94C1
:100CF000AC0AA4E0B1E08C93809105010E94AC0A9B
:100D0000A5E0B1E08C9310ED0E94590E13E00E9413
:100D1000590E1091FE010E94590E109103010E947C
:100D2000590E109104010E94590E109105010E9464
:100D3000590E0E94500E62FA16F00C94AB068FE02A
:100D4000D2018C9381E00E94710C0E9400072296D0
:100D500081E00E946D0C0C94B506E2EFFEE10E946A
:100D60000A0D0E94390A0E94400A08950E94410E0D
:100D700062FA16F40C94F706809100010E94AC0A06
:100D8000A0E0B1E08C93809101010E94AC0AA1E047
:100D9000B1E08C93809102010E94AC0AA2E0B1E024
:100DA0008C9310ED0E94590E10E00E94590E109184
:100DB00000010E94590E109101010E94590E1091DC
:100DC00002010E94590E0E94500E62FA16F00C9415
:100DD000F5068FE0D2018C9381E00E94710C0E9495
:100DE0000007229681E00E946D0C0C94FF06E4E15E
:100DF000FFE10E940A0D0E94390A0E94400A0895EC
:100E000085E10E94710CAA81BB810C91013011F027
:100E10000C941407A881B981E6E3FFE10E940A0D52
:100E20000E94A60C0C94E007023011F00C942207EB
:100E3000A881B981E0E4FFE10E940A0D0E94A60C9E
:100E40000C94E007033011F00C943007A881B981AD
:100E5000E6E4FFE10E940A0D0E94A60C0C94E00754
:100E6000043011F00C943E07A881B981E4E5FFE15C
:100E70000E940A0D0E94A60C0C94E007053011F0A8
:100E80000C944C07A881B981ECE5FFE10E940A0DA2
:100E90000E94A60C0C94E007063011F00C945A073F
:100EA000A881B981E6E6FFE10E940A0D0E94A60C26
:100EB0000C94E007073011F00C946807A881B98101
:100EC000EEE6FFE10E940A0D0E94A60C0C94E007DA
:100ED000083011F00C947607A881B981ECE7FFE1A6
:100EE0000E940A0D0E94A60C0C94E007093011F034
:100EF0000C948407A881B981EAE8FFE10E940A0DF9
:100F00000E94A60C0C94E0070A3011F00C94920792
:100F1000A881B981EEE8FFE10E940A0D0E94A60CAB
:100F20000C94E0070B3011F00C94A007A881B98154
:100F3000E4E9FFE10E940A0D0E94A60C0C94E00770
:100F40000C3011F00C94AE07A881B981EAE9FFE1F9
:100F50000E940A0D0E94A60C0C94E0070D3011F0BF
:100F60000C94BC07A881B981E0EAFFE10E940A0D58
:100F70000E94A60C0C94E0070E3011F00C94CA07E6
:100F8000A881B981E6EAFFE10E940A0D0E94A60C41
:100F90000C94E0070F3011F00C94D807A881B981A8
:100FA000E6EBFFE10E940A0D0E94A60C0C94E007FC
:100FB000A881B981E4ECFFE10E940A0D0E94A60C11
:100FC000E2EDFFE10E940A0D0E94390AA881B98171
:100FD0000E94330A0E94400A85E1481A80E0580ABC
:100FE00022960895E8E8F1E10E940A0DAEEFB1E023
:100FF0008C9199270E94DB0CA4EFB1E00E94A60C13
:10100000809104018093F301E6EAF1E10E940A0D68
:10101000A3EFB1E08C9199270E94DB0CAFEFB1E018
:101020000E94A60CA4EFB1E00E94330AEAEDFFE1B2
:101030000E940A0D0E94390A0E94D20AA6E0B1E07D
:101040000E94330AEAEDFFE10E940A0D0E94390A6C
:101050000E94D20AAFE0B1E00E94330A0E94400A27
:101060008091000180930C0208954F4B00436F6DF7
:10107000616E646F206E6F207265636F6E6F63695F
:10108000646F004C6F6E676974756420636F6D6187
:101090006E646F206E6F2076616C696461004E75BE
:1010A0006D65726F206465207573756172696F205C
:1010B0006E6F2076616C69646F004E756D65726F3E
:1010C00020646520706172616D6574726F73206950
:1010D0006E76616C69646F004572726F72206C6F1E
:1010E0006E676974756420706172616D6574726F8A
:1010F0002031004572726F72206C6F6E6769747573
:101100006420706172616D6574726F20320050618D
:1011100072616D6574726F206E6F2076616C6964A8
:101120006F004552524F5238004552524F52205391
:10113000442E20496E74656E7465206465206E755A
:1011400065766F000000000003000000330000001F
:1011500033030000333300003333030033C00C008B
:10116000FF0FFF0F55555555333333337777777767
:101170000C00FCFFCC00FCFFCC0CFCFFCCCCFCFF3B
:101180000C00FCFFF0FFFFFF20004C554E004D41CE
:1011900052004D4552004A45550056454E005341B8
:1011A0004D0044494D0020004A414E00464556003E
:1011B0004D415200415652004D4149004A55494E59
:1011C000004A55494C00414F555400534550540076
:1011D0004F4354004E4F56450044454345000E943E
:1011E0003A02ECEDFFE10E940A0D0E94390A0E94CA
:1011F000400AE8EEFFE10E940A0D0E94390AD2017E
:10120000E7E2F0E00E94C10DD2010E94330A0E9481
:10121000400AEEEEFFE10E940A0D0E94390AD20157
:10122000E6E2F0E00E94C10DD2010E94330A0E9462
:10123000400A0E94DD0562FA16F40C946209E4EF9C
:10124000FFE10E940A0D0E94390A0E94D20AAFE013
:10125000B1E00E94330AEEEFFFE10E940A0D0E9406
:10126000390A0E94D20AA6E0B1E00E94330A0E9425
:10127000400AE0E0F1E00E94120CAEE1B1E00D9313
:101280001D932D933D9349E05BEC68EC72E2AEE177
:10129000B1E00D911D912D913C910E942A0D1CF001
:1012A00011F00C9455090C946009E6E0F0E20E94FC
:1012B0000A0D0E94390A0E94400A81E08093F101E0
:1012C0000C946D09EAE2F0E20E940A0D0E94390ACC
:1012D0000E94400A82E08093F101A2EFB1E08C917C
:1012E00081FB16F00C9487097091F2017D7F709359
:1012F000F201E4E3F0E20E940A0D0E94390AADE037
:10130000B3E00E94330A0E94400A0E946B02A2EFDF
:10131000B1E08C9185FB16F00C94D4097091F20128
:101320007F7D7093F201EAE3F0E20E940A0D0E94D1
:10133000390A0E94400A28982C985D9A80E0809390
:10134000120281E090E0A2E2B1E08D939C93A0E1D3
:10135000B2E04D915C91A2E2B1E00D911C910417B5
:10136000150718F011F00C94CA092C9AEF93FF930B
:10137000EFE0F0E00E94BA0AFF91EF912C9885E02F
:1013800090E00E94C30AA2E2B1E00E94E30910F4D7
:101390000C94A709289A5D98E4E4F0E20E940A0DF3
:1013A0000E94390A0E94400A0C946D090D911D910A
:1013B0002D913C910F5F1F4F2F4F3F4F3C932E932A
:1013C0001E930E930895ED91FC91EF5FFF4FFC93F8
:1013D000EE93089509D00E94790C00FC10D0089576
:1013E00003D01ED001F8F9CF0024E89457FF02C0C3
:1013F00009D0689400F80BD010F80124089502D0A9
:1014000009D00895509540954F5F5F4F0895E89437
:1014100017FF0895009510950F5F1F4F689408956A
:10142000352F242FE894452B11F468940895512FFB
:10143000402F0027112780E1440F551F001F111F67
:10144000021B130B416018F4020F131F4E7F8A9585
:1014500099F708958F938D918823E9F711978F91CC
:101460000895A0E8BFE38D91882311F00CD0FBCF45
:1014700008950E94AC0C802D11F005D0FACF08958C
:101480008DE001D08AE00090C00005FEFCCF809383
:10149000C600089500FC05D0089530D005D001F8AD
:1014A000F9CF37D03FD00895842F952FA62FB72F8F
:1014B000E894452B462B472B11F468940895402F50
:1014C000512F622F732F0027112722273327F0E295
:1014D000440F551F661F771F001F111F221F331F48
:1014E000081B190B2A0B3B0B416028F4080F191F2E
:1014F0002A1F3B1F4E7FFA9559F708950024E89460
:1015000077FF02C006D0689400F809D010F80124D3
:10151000089512D04F5F5F4F6F4F7F4F0895E8944B
:1015200037FF089500951095209530950F5F1F4F58
:101530002F4F3F4F68940895409550956095709552
:101540000895982F82958F70805D8D939F70905D28
:101550009D9388278C9308954AE0082F0E94E90DF7
:101560000295802B0895892F8F70905110F0865F1F
:10157000FCCF08953197F1F70895689462F80895C3
:10158000E89462F80895EF93FF93EE27E82BE92B98
:1015900031F0E3E3F7E03197F1F70197D1F7FF91ED
:1015A000EF9108950E943702A6E0B1E0E3E0F1E098
:1015B0000E94250B33970C94010BE6E0F1E0A3E0C9
:1015C000B1E00E94130B0C943802EFE0F1E0A0E0D0
:1015D000B1E00E94EF0A0C943902ADE0BB2786818E
:1015E00097810E941B0D0D93838194810E941B0D96
:1015F0000D93808191810E941B0D0D930895EDE064
:10160000FF2782810E94100D8AE38D9381810E94C1
:10161000100D8AE38D9380810E94100D88278C9392
:101620000895ADE0BB27808191810E941B0D0D9331
:10163000838194810E941B0D0D93868197810E9466
:101640001B0D0D930895EDE0FF2780810E94100D82
:101650008FE28D9381810E94100D8FE28D938281A4
:101660000E94100D88278D93089521D00F2D069587
:1016700006950F0D0D0D8F2D837021F41E2D133047
:101680000AF40A958E2D8A959927E2EAF6E10E94DE
:101690000A0DA8E1BB270E94C80C080F47E00C9474
:1016A000E90D05010104060204000305010393E0AE
:1016B000ADE002C096E0AAE0B0E08FB7F8940191E7
:1016C0000D939A95E1F78FBF08950191119145EB24
:1016D00055E00E94F009440F440FF42E0F31150716
:1016E00028F481E0E82E0395D02E24C00C33150792
:1016F00028F482E0E82E0E51D02E1CC00150150BAC
:101700004DE651E00E94100AF40E7CE07A95872F96
:101710009927E6E3F7E10E940A0DA2E1BB270E94A8
:10172000C20C0217130790F37395E72E021B130BDD
:101730000395D02E089500001F003B005A0078004A
:101740009700B500D400F300110130014E01019162
:1017500011912191308140E851E561E070E00E94F3
:101760004D0A042F152F0C94670BA1DF0E2D0A953F
:10177000802F0295003220F01F2D137009F403957D
:10178000DA940D0D11279927EEE9F7E10E940A0D71
:10179000A8E1BB270E94C80C080F111F0895000F75
:1017A0001B2A384755647381909E81DF0F2D1127C6
:1017B0004CE355270E94EA0955270E0D151F4CE3EF
:1017C00022273327662777270E94830C0D0D131FCE
:1017D000231F08956CDFDF92EF92FF920F2D1127E8
:1017E000222733274DE651E060E070E00E94830C31
:1017F000FF904F2D4D5F46954695552766277727D5
:101800000E94250DEF90DF900F931F932F933F932E
:101810000E94B60B222733277F916F915F914F91E2
:101820000C94250D47DFAF92BF92CF920E94EB0B35
:1018300040E851E561E070E00E94830CFF90EF907A
:10184000DF900F931F932F933F930E94D60B7F91AE
:101850006F915F914F910C94250D01911191219100
:10186000308140E851E561E070E00E944D0A0C943F
:101870003D0C019111912191308140E15EE060E0E9
:1018800070E00E944D0AF42E4CE350E00E94F009F3
:10189000E42ED02E0895AF93BF930E942D0CBF91DC
:1018A000AF910C94FF0AAF93BF930E94A70BBF9117
:1018B000AF910C94230BAAE0BB270E94EF0AE99199
:1018C000F9910E94110B0C94130C0191119121912B
:1018D00030810895481A590A0895481A8827580AE5
:1018E000089599275A924A92480E591E0895015018
:1018F00010400F92B801469F8001479F100D569FE0
:10190000100D0F9008950F921F922F92C801D901C8
:10191000489F80014A9F90014B9F202C499F100DAA
:10192000211D321D5A9F202C589F100D211D321D44
:10193000599F200D311D689F200D311D699F300D6D
:10194000789F300D2F901F900F9008950E94AC0C3F
:101950000D920020D9F70895D895319628F48F93E9
:101960008BB783958BBF8F910020089591E005C0C0
:1019700092E003C094E001C098E0EEDF0D929A95EA
:10198000E1F70895880F991FE80FF91F0DD0F0CFE8
:10199000E80FF91F09D0EACF880F991F880F991F08
:1019A000E80FF91F01D0E6CF28F48F938BB783950A
:1019B0008BBF8F9108950196019721F00E94AC0C86
:1019C000E9F7FACF0895819104D08D938823D9F750
:1019D0000895813618F08B3708F48F7D089591E0D3
:1019E000882321F08894991F8A95E9F7892F90958B
:1019F0000895883018F011968850FBCF08950F9203
:101A000000240BBE0F9008950F9301E00BBF0F91C0
:101A1000889408950F930027F9CF0F9302E0F6CF33
:101A200000278A3018F08A500395FBCF005D0D9394
:101A3000805D8D930895805390530027813018F076
:101A4000065F8A95FBCF090F0895040F151F261F07
:101A5000371F089504171507260737070895000F45
:101A6000111F221F331F0895009510952095309562
:101A70000F5F1F4F2F4F3F4F0895019110810FC0EF
:101A80000E94650C0EC00E94650C10C0019110816F
:101A900017FF05C03FEF2FEF04C000811127222759
:101AA000332737FF03C0E0DF8DE28D93CF92DF92C3
:101AB000EF92AA24BB24CC24DD24EE2440E2EAE009
:101AC000FF2755E093E38081890F87FD9F7083FD99
:101AD000907F891B81935A95A9F7C1DFAA1CBB1C73
:101AE000CC1CDD1CEE1C4A9551F7E894EFE0FF2773
:101AF00082910BD0EB30E0F71EF068948A2D09D06C
:101B00004D93EF90DF90CF900895982F829501D05C
:101B1000892F8F70805D26F0803309F408956894D2
:101B20008D93089500271127222733271DD08A334C
:101B300028F4803318F005D015D0F9CF0EF494CFE7
:101B4000089580538F93402F512F622F732F87DF7B
:101B500086DF7BDF84DF8F919927080F191F291FEC
:101B6000391F08958D910895E894FCDF8032E9F3E0
:101B70008B32D9F38930C9F38D3211F46894F2CFE6
:101B8000089541E0E40F8827F81F829138E098E13A
:101B9000880F991F9D933A95D1F74A95B1F70C9408
:101BA000D10D88278D93089581918D938823E1F736
:101BB000089509919191992359F08A95D9F7319710
:101BC000002331F081918D930A958823C9F70895F8
:101BD000E8CFFF93881BF9E0001FFA9511F4FF91FD
:101BE0000895881F841B18F4840F8894F5CF0894F7
:101BF000F3CF8FEF83959D919923E1F70895689432
:101C000001C0E894AF93BF938D9116F0919103C0FA
:101C10000E94AC0C902D891718F011F48823A1F7BD
:101C2000BF91AF910895689401C0E8942227102FC6
:101C3000231709F4089526F40E94AC0C802D01C0EE
:101C40008191803081F0891741F070E08D931A9571
:101C500091F7239571E01D93EACF01D0E8CF703062
:101C600011F077270895772331F42395882713956A
:101C70008D931A95E9F708953998389841984098C6
:101C80000895389A399803D0389801D0399AEF934B
:101C9000FF93EFE0F0E00E94BA0AFF91EF91089500
:101CA000389A399AF4DF3898309BFECFF0DF3998B4
:101CB000EECF0894111F01C0110F69F0389A18F483
:101CC0000000399802C0399A00C0E1DF3898309B93
:101CD000FECFDDDFF1CF389A3998D9DF3898309BC5
:101CE000FECFE8943199689462F8D1CF089401C08E
:101CF0008894331F11E0389A3998C9DF3898309B9F
:101D0000FECFC5DF889431990894111FA0F7389A47
:101D1000379510F4399801C0399AB9DF3898309B5B
:101D2000FECFB5DF08952A2A2A2A2A2A2A2A2A2A11
:101D30002A2A20445333323331202A2A2A2A2A2AB3
:101D40002A2A2A2A2A2A000031352D30372D32300E
:101D500032352031393A30353A303400302E312E98
:101D60003900444943494D41452E42415300240026
:101D70003A004C4545564657000056657273696FE8
:101D80006E2046573A204665636861203C003E2C31
:101D9000204172636869766F203C00003E00534525
:101DA000544C45440000536520636F6E6669677547
:101DB0007261207365746C65642061200000534972
:101DC00053434C4B0000486F72612061637475612E
:101DD0006C3D00002C20466563686120616374756A
:101DE000616C3D00534554434C4B0000543E000091
:101DF0002F00443E00005741544348494E47204974
:101E00004E464F524D412E20536520636F6E6669DA
:101E10006775726F2072656C6F6A20656E200000B6
:101E2000206120004C454552544300004C6565201C
:101E3000525443005345544D4F54000053652063A2
:101E40006F6E666967757261204769726F20000066
:101E500064657265636861200000697A71756965FF
:101E60007264612000002070756C736F73005345BD
:101E7000545041530000536520636F6E66696720BC
:101E80006D6963726F7061736F20612000004C4553
:101E90004550415300004D6963726F7061736F3D2F
:101EA00000004E6F20736520656E636F6E74726FF5
:101EB0002044533332333120656E204765746461AA
:101EC000746574696D65203200004E6F2073652063
:101ED000656E636F6E74726F2044533332333120FA
:101EE000656E204765746461746574696D65203141
:101EF00000004E6F20736520656E636F6E74726FA5
:101F00002044533332333120656E2053657464614D
:101F1000746500004E6F20736520656E636F6E748C
:101F2000726F2044533332333120656E2053657411
:101F300074696D650000205265736574202000008F
:101F400020444648200073657420706172616D738F
:101F50002020000073746172742000004861726474
:101F600073746F702000537461747573200047653B
:101F700074706F736974696F6E20000070617320F4
:101F80006465206D6F64756C650039787800313058
:101F900078780000313178780000313278780000AC
:101FA00031337878000065637269747572652063F7
:101FB0006C6F636B00006C65637475726520636C95
:101FC0006F636B004175747265206572726575721E
:101FD00000006572726F723D00002C004C656F202E
:101FE0004453333233310000444452433D0070695E
:101FF0006E433D0052544320486F72613D002C46B1
:10200000656368613D00486F72612076616C696448
:10201000612C206E6F206573206E6563657361723D
:10202000696F20414354434C4B004552524F52205C
:10203000434C4B00534552313D004749524F206DB0
:0E2040006F74000046696E204769726F0000E1
:00000001FF
